:100000000C9434000C9451000C9451000C94510049
:100010000C9451000C9451000C9451000C9451001C
:100020000C9451000C9451000C9451000C9451000C
:100030000C9451000C9451000C9451000C945100FC
:100040000C9451000C9451000C9451000C945100EC
:100050000C9451000C9451000C9451000C945100DC
:100060000C9451000C94510011241FBECFEFD8E026
:10007000DEBFCDBF11E0A0E0B1E0ECE4F3E002C0F0
:1000800005900D92A030B107D9F721E0A0E0B1E0D2
:1000900001C01D92A830B207E1F70E9453000C94F2
:1000A000A4010C9400000E9423016CE781E00E94EF
:1000B00061016EE784E00E946C012FEF87EE93E010
:1000C000215080409040E1F700C000000E948B0169
:1000D0006EE781E00E9461016EE783E00E946101AA
:1000E0006EE786E00E9461016EE786E00E946C0187
:1000F0002FEF87EE93E0215080409040E1F700C061
:1001000000000E948B016CE781E00E9461016EE7B4
:1001100084E00E946C012FEF87EE93E02150804035
:100120009040E1F700C000000E948B0168E781E089
:100130000E94610164E482E00E94610168E783E05B
:100140000E9461016EE786E00E946C0160E684E037
:100150000E94610160E585E00E94610168E486E03B
:100160000E9461012FEF87EE93E021508040904084
:10017000E1F700C000000E948B016CE781E00E9463
:1001800061016EE784E00E946C016CE786E00E94EA
:1001900061012FEF87EE93E0215080409040E1F71E
:1001A00000C000000E948B016EE781E00E946101A7
:1001B0006EE783E00E94610162E084E00E946101D9
:1001C00062E085E00E9461016EE786E00E946101C5
:1001D0006EE486E00E946C012FEF87EE93E02150E1
:1001E00080409040E1F700C0000080E090E008957A
:1001F000000020E012C095B19D7F95B900008823D2
:1002000024F495B1916095B903C095B19E7F95B9DD
:1002100095B1926095B92F5F880F283060F30895EB
:10022000CF93C62F95B1946095B90E94F8008C2F9A
:100230000E94F80085B18B7F85B9000085B184608C
:1002400085B9CF91089584B1876084B960E089E071
:100250000E94100167E08BE00E9410016FE08AE0CD
:100260000E94100160E08FE00E94100161E08CE0CC
:100270000E9410010895883018F5683008F521E0D3
:1002800030E002C0220F331F6A95E2F7442341F0A9
:10029000E82FF0E0E050FF4F9081292B208308C029
:1002A000E82FF0E0E050FF4F209590812923208334
:1002B000E82FF0E0E050FF4F60818F5F0E94100157
:1002C0000895883040F4E82FF0E0E050FF4F60835D
:1002D0008F5F0E94100108951F93CF93DF938830A2
:1002E000B0F4162FD82FC0E010C0212F30E00C2E14
:1002F00002C0359527950A94E2F741E020FF40E0DF
:100300006D2F8C2F0E943B01CF5FC83070F3DF91BF
:10031000CF911F910895CF93C0E012C08C2F90E031
:10032000FC01E050FF4F2081222349F0FC01E05006
:10033000FF4F108260E081E08C0F0E941001CF5FC0
:0C034000C83060F3CF910895F894FFCF0F
:00000001FF
